:100000000C943E000C945B000C945B000C945B0021
:100010000C945B000C945B000C945B000C945B00F4
:100020000C945B000C945B000C945B000C945B00E4
:100030000C945B000C945B000C945B000C945B00D4
:100040000C945B000C945B000C945B000C945B00C4
:100050000C945B000C945B000C945B000C945B00B4
:100060000C945B000C945B00B801BD01C301E70177
:10007000C901E701CF01D501DB01E10111241FBE58
:10008000CFEFD8E0DEBFCDBF11E0A0E0B1E0E6E108
:10009000FAE002C005900D92AC32B107D9F721E029
:1000A000ACE2B1E001C01D92AC33B207E1F70E94AF
:1000B0008F000C9407050C940000A0912C01B091C6
:1000C0002D01109769F0ED91FC91119712968D9189
:1000D0009C91139790932D0180932C010995EDCF5E
:1000E0000895CF93DF93EC0184E090E00E94E60353
:1000F000009781F0FC01D183C08320912C013091C5
:100100002D013383228390932D0180932C0180E075
:1001100090E002C081E090E0DF91CF910895CF930D
:10012000DF93CDB7DEB760970FB6F894DEBF0FBE92
:10013000CDBF46E051E066E0CE0101960E94DB02B1
:100140006E0129E0C20ED11CBE016F5F7F4FC60158
:100150000E948902CE0101960E94E0021C861A824A
:1001600019821E86188A9E01245F3F4FAE014F5FA1
:100170005F4FBE01625F7F4FCE0140960E946E02CC
:100180008C0188E0ECE0F1E0DE01119601900D9227
:100190008A95E1F7CE0101967C015C0128EC822E64
:1001A000912C9D868C86AE01445F5F4FB501C601E0
:1001B0000E94940292E0A90EB11CCA14DB0489F7D4
:1001C000AFEFB3EDE0E3A150B040E040E1F700C095
:1001D0000000FFEF23ED80E3F15020408040E1F785
:1001E00000C000009FEFA3EDB0E39150A040B040ED
:1001F000E1F700C0000084E0A82EB12C9FE0792E2A
:1002000066246394BF86AE86188AF7018190919028
:100210007F01D801ED91FC910190F081E02D7C8669
:10022000BE01645F7F4FC8010995D801ED91FC9133
:100230000680F781E02D6C86AE01445F5F4FBE0102
:10024000605F7F4FC8010995D801ED91FC91008452
:10025000F185E02D1D861C86BE01645F7F4FC801BD
:100260000995D801ED91FC910484F585E02DA40158
:10027000BE01605F7F4FC8010995D801ED91FC91E7
:100280000280F381E02DBE01625F7F4FC8010995B6
:1002900088EC90E0EFE9FFE03197F1F700C0000053
:1002A0000197C1F7D801ED91FC910680F781E02D0F
:1002B0001C86AE01445F5F4FBE01605F7F4FC80187
:1002C0000995D801ED91FC910480F581E02DC801DC
:1002D0000995CE14DF0409F095CFFFCF0895FB01F7
:1002E0008081883041F128F4882379F0813091F0C1
:1002F00008958E3031F18F3099F0893071F584B5E1
:100300008C7F84BD84B5836010C084B58C7F84BD30
:1003100084B50BC084B58C7F84BD84B5816005C075
:1003200084B58C7F84BD84B5826084BD85B5877FAC
:1003300085BD85B511C084B58C7F84BD84B58160D1
:1003400005C084B58C7F84BD84B5836084BD85B5CC
:10035000877F85BD85B5886085BD0895DB01ED91FA
:10036000FC91EA30F10598F5EC5CFF4F0C94D10359
:1003700085B5887F85BD85B529C085B5887F85BD54
:1003800085B5816023C085B5887F85BD85B58260D0
:100390001DC085B5887F85BD85B5836017C085B5CF
:1003A000887F85BD85B5846011C085B5887F85BD92
:1003B00085B585600BC085B5887F85BD85B58660B0
:1003C00005C085B5887F85BD85B5876085BD0895E5
:1003D00085B5887F85BD0895FB01808186BD089520
:1003E00086B590E00895FB018081882319F0813063
:1003F00019F0089547BD089548BD0895FB01808117
:10040000882321F0813031F428B501C027B530E0D0
:10041000C90108950895FB018081882319F0813076
:1004200049F0089584B58F7384BD24B5FA01908195
:10043000F0E407C084B58F7C84BD24B5FA019081B7
:10044000F0E19F9FC0011124822B84BD0895FB0120
:100450008081882319F0813049F0089580916E00E1
:10046000442311F0826009C08D7F07C080916E0027
:10047000442311F0846001C08B7F80936E00089547
:1004800080916E00662311F0816001C08E7F8093A1
:100490006E000895CF92DF92EF92FF920F931F9319
:1004A000CF93DF93EC017B01690188E191E09983AF
:1004B0008883BA01CE010E946F01B601CE010E946D
:1004C000AE01A801B701CE01DF91CF911F910F912D
:1004D000FF90EF90DF90CF900C940B020F931F933F
:1004E000E0913001E1110FC089019A01AB01BC011B
:1004F0008EE291E00E944A0281E0809330018EE614
:1005000091E00E9471008EE291E01F910F91089599
:10051000089523E0FB01DC0101900D922A95E1F79B
:100520000C94E1020C94E0028F929F92AF92BF92E2
:10053000CF92DF92EF92FF920F931F93CF93DF93AF
:10054000EC018B01FA0120813181A8EEB3E00E9419
:10055000D7034B015C01C12CD12C7601C814D904FE
:10056000EA04FB04C8F480E090E0F80120813181C6
:100570008217930730F4F5E0FA95F1F70000019641
:10058000F4CFCE010E948203F80180819181C80ED0
:10059000D91EE11CF11CE2CFCE01DF91CF911F915A
:1005A0000F91FF90EF90DF90CF90BF90AF909F9012
:1005B0008F900C943903FC0151834083628308952A
:1005C0000895DC01ED91FC9111970190F081E02DEF
:1005D000408121E030E0C90112960C9002C0880FE2
:1005E000991F0A94E2F7842B80830895FC01DB01B4
:1005F0008C91A081B181428112960D90BC91A02D69
:100600008823D1F05C9181E090E09C0101C0220F31
:100610004A95EAF7252B2C93A081B1810D90BC91CE
:10062000A02D2C91028002C0880F991F0A94E2F736
:10063000809582238C9308959C9121E030E0B9014C
:1006400002C0660F771F4A95E2F7862F80958923AF
:100650008C93A081B1810D90BC91A02D8C910280D2
:1006600002C0220F331F0A94E2F7209528232C930F
:100670000895CF93DF93DC01ED91FC911197C08138
:10068000D181988112963C91892F90E0032E02C06F
:10069000959587950A94E2F780FF0DC00280F3815B
:1006A000E02D208181E090E001C0880F3A95EAF7C3
:1006B000809582238083DF91CF910895CF93DF933C
:1006C000DC01ED91FC911197C081D1819881129646
:1006D0002C91892F90E0022E02C0959587950A945F
:1006E000E2F780FF0CC00280F381E02D308181E0D1
:1006F00090E001C0880F2A95EAF7832B8083DF9171
:10070000CF910895CF93DF93DC01ED91FC91119788
:10071000C081D181988112962C91892F90E0022E70
:1007200002C0959587950A94E2F780FF0CC002807D
:10073000F381E02D308181E090E001C0880F2A959F
:10074000EAF783278083DF91CF910895FC01A08190
:10075000B18114960D90BC91A02D4C9121E030E018
:10076000C901028002C0880F991F0A94E2F784230E
:100770000895DC01ED91FC9111970480F581E02D45
:10078000208130E0F90112960C9002C0F595E795B2
:100790000A94E2F7CF01809581700895FC0182816F
:1007A0000895EE0FFF1F0590F491E02D0994A29F8C
:1007B000B001B39FC001A39F700D811D1124911D35
:1007C000B29F700D811D1124911D08950F931F93E9
:1007D000CF93DF938230910510F482E090E0E091B6
:1007E0003A01F0913B0120E030E0A0E0B0E030972A
:1007F00019F1408151810281138148175907C8F0CE
:100800008417950769F4109731F012960C9312979C
:1008100013961C9327C000933A0110933B0122C00A
:100820002115310519F04217530718F49A01BD013B
:10083000EF01DF01F801DBCF21153105F9F0281BAD
:10084000390B2430310580F48A819B816115710553
:1008500021F0FB019383828304C090933B0180933A
:100860003A01FE01329644C0FE01E20FF31F81936C
:10087000919322503109398328833AC0209138015D
:1008800030913901232B41F4209102013091030171
:1008900030933901209338012091000130910101FA
:1008A0002115310541F42DB73EB740910401509117
:1008B0000501241B350BE0913801F0913901E21755
:1008C000F307A0F42E1B3F0B2817390778F0AC0173
:1008D0004E5F5F4F2417350748F04E0F5F1F509350
:1008E0003901409338018193919302C0E0E0F0E038
:1008F000CF01DF91CF911F910F910895CF93DF9397
:10090000009709F481C0FC01329713821282A091F2
:100910003A01B0913B01109781F420813181820F1F
:10092000931F20913801309139012817390751F56B
:10093000F0933901E093380167C0ED0120E030E029
:10094000CE17DF0740F44A815B819E0141155105B6
:10095000F1F0EA01F5CFD383C28340815181840F46
:10096000951FC817D90759F488819981840F951F5D
:100970000296918380838A819B8193838283211550
:10098000310529F4F0933B01E0933A013DC0E901C0
:10099000FB83EA8349915991C40FD51FEC17FD07DA
:1009A00061F480819181840F951F0296E9019983FA
:1009B0008883828193819B838A83E0E0F0E01296B2
:1009C0008D919C911397009719F0FD01DC01F7CFF1
:1009D0008D919C9111979D012E5F3F4F820F931F28
:1009E00020913801309139012817390769F430977F
:1009F00029F410923B0110923A0102C01382128234
:100A0000B0933901A0933801DF91CF9108950E94EE
:060A10005D00F894FFCF29
:100A160000003C0120002A002B00290064004F0042
:100A260043003200000000006F01AE01E8010B0236
:0C0A3600EC01F001F301FE012702400278
:00000001FF
