:100000000C943C000C9459000C9459000C94590029
:100010000C9459000C9459000C9459000C945900FC
:100020000C9459000C9459000C9459000C945900EC
:100030000C9459000C9459000C9459000C945900DC
:100040000C9459000C9459000C9459000C945900CC
:100050000C9459000C9459000C9459000C945900BC
:100060000C9459000C945900E601D901DB01DD0123
:10007000DF01E101E301E50111241FBECFEFD8E06C
:10008000DEBFCDBF11E0A0E0B1E0EAE3FAE002C0DC
:1000900005900D92AC32B107D9F721E0ACE2B1E0A6
:1000A00001C01D92AC33B207E1F70E948D000C94A1
:1000B00019050C940000A0912C01B0912D0110970E
:1000C00069F0ED91FC91119712968D919C91139787
:1000D00090932D0180932C010995EDCF0895CF9336
:1000E000DF93EC0184E090E00E94F803009781F038
:1000F000FC01D183C08320912C0130912D013383E9
:10010000228390932D0180932C0180E090E002C027
:1001100081E090E0DF91CF910895CF93DF93CDB749
:10012000DEB760970FB6F894DEBF0FBECDBF46E0D6
:1001300051E066E0CE0101960E94ED026E0129E0D9
:10014000C20ED11CBE016F5F7F4FC6010E94990293
:10015000CE0101960E94F2021C861A8219821E8626
:10016000188A9E01245F3F4FAE014F5F5F4FBE0173
:10017000625F7F4FCE0140960E947E028C0188E034
:10018000ECE0F1E0DE01119601900D928A95E1F725
:10019000CE0101967C015C0128EC822E912C9D867B
:1001A0008C86AE01445F5F4FB501C6010E94A40278
:1001B00092E0A90EB11CCA14DB0489F7AFEFB3EDCE
:1001C000E0E3A150B040E040E1F700C00000FFEFE5
:1001D00023ED80E3F15020408040E1F700C00000B3
:1001E0009FEFA3EDB0E39150A040B040E1F700C015
:1001F000000084E0A82EB12C9FE0792E6624639441
:10020000BF86AE86188AF701819091907F01D80150
:10021000ED91FC910190F081E02D7C86BE01645F40
:100220007F4FC8010995D801ED91FC910680F781B7
:10023000E02D6C86AE01445F5F4FBE01605F7F4F73
:10024000C8010995D801ED91FC910084F185E02D5C
:100250001D861C86BE01645F7F4FC8010995D801C9
:10026000ED91FC910484F585E02DA401BE01605F51
:100270007F4FC8010995D801ED91FC910280F3816F
:10028000E02DBE01625F7F4FC801099588EC90E0C8
:10029000EFE9FFE03197F1F700C000000197C1F7E7
:1002A000D801ED91FC910680F781E02D1C86AE010E
:1002B000445F5F4FBE01605F7F4FC8010995D80161
:1002C000ED91FC910480F581E02DC8010995CE14D3
:1002D000DF0409F095CFFFCF0895FB0180818830BE
:1002E000C9F128F4882399F08130C9F008958E303F
:1002F000D1F18F30E9F0893009F049C08091B00028
:100300008C7F8093B0008091B000836019C0809191
:10031000B0008C7F8093B0008091B00011C08091BC
:10032000B0008C7F8093B0008091B000816008C0E5
:100330008091B0008C7F8093B0008091B00082608B
:100340008093B0008091B100877F8093B10080914D
:10035000B1001BC08091B0008C7F8093B000809171
:10036000B000816008C08091B0008C7F8093B000A5
:100370008091B00083608093B0008091B100877F4E
:100380008093B1008091B10080628093B1000895A4
:10039000DB01ED91FC91E830F105D0F4EC5CFF4F0E
:1003A0008091B100887F8093B1008091B1000C945E
:1003B000E30381600BC0826009C0836007C0846072
:1003C00005C0856003C0866001C087608093B1006E
:1003D0000895E1EBF0E08081887F80830895FB0140
:1003E00080818093B20008958091B20090E00895DA
:1003F000FB018081882319F0813021F0089540931A
:10040000B30008954093B4000895FB0180818823D0
:1004100029F0813041F42091B40002C02091B30052
:1004200030E0C90108950895FB018081882319F007
:10043000813061F008958091B0008F738093B00097
:100440002091B000FA019081F0E40AC08091B000E0
:100450008F7C8093B0002091B000FA019081F0E190
:100460009F9FC0011124822B8093B0000895FB014F
:100470008081882319F0813049F0089580917000BF
:10048000442311F0826009C08D7F07C08091700005
:10049000442311F0846001C08B7F80937000089525
:1004A00080917000662311F0816001C08E7F80937F
:1004B00070000895CF92DF92EF92FF920F931F93F7
:1004C000CF93DF93EC017B01690188E191E099838F
:1004D0008883BA01CE010E946D01B601CE010E944F
:1004E000C801A801B701CE01DF91CF911F910F91F3
:1004F000FF90EF90DF90CF900C9414020F931F9316
:10050000E0913001E1110FC089019A01AB01BC01FA
:100510008EE291E00E945A0281E0809330018CE6E5
:1005200091E00E946F008EE291E01F910F9108957B
:10053000089523E0FB01DC0101900D922A95E1F77B
:100540000C94F3020C94F2028F929F92AF92BF929E
:10055000CF92DF92EF92FF920F931F93CF93DF938F
:10056000EC018B01FA0120813181A8EEB3E00E94F9
:10057000E9034B015C01C12CD12C7601C814D904CC
:10058000EA04FB04C8F480E090E0F80120813181A6
:100590008217930730F4F5E0FA95F1F70000019621
:1005A000F4CFCE010E949403F80180819181C80E9E
:1005B000D91EE11CF11CE2CFCE01DF91CF911F913A
:1005C0000F91FF90EF90DF90CF90BF90AF909F90F2
:1005D0008F900C944B030C944B03FC01518340838C
:1005E000628308950895DC01ED91FC9111970190CB
:1005F000F081E02D408121E030E0C90112960C909D
:1006000002C0880F991F0A94E2F7842B8083089513
:10061000FC01DB018C91A081B181428112960D9089
:10062000BC91A02D8823D1F05C9181E090E09C01E9
:1006300001C0220F4A95EAF7252B2C93A081B181A6
:100640000D90BC91A02D2C91028002C0880F991FA3
:100650000A94E2F7809582238C9308959C9121E07F
:1006600030E0B90102C0660F771F4A95E2F7862F86
:10067000809589238C93A081B1810D90BC91A02D90
:100680008C91028002C0220F331F0A94E2F720955A
:1006900028232C930895CF93DF93DC01ED91FC91F7
:1006A0001197C081D181988112963C91892F90E059
:1006B000032E02C0959587950A94E2F780FF0DC03E
:1006C0000280F381E02D208181E090E001C0880F5D
:1006D0003A95EAF7809582238083DF91CF91089540
:1006E000CF93DF93DC01ED91FC911197C081D18113
:1006F000988112962C91892F90E0022E02C0959538
:1007000087950A94E2F780FF0CC00280F381E02D08
:10071000308181E090E001C0880F2A95EAF7832BB1
:100720008083DF91CF910895CF93DF93DC01ED912A
:10073000FC911197C081D181988112962C91892FBB
:1007400090E0022E02C0959587950A94E2F780FF0B
:100750000CC00280F381E02D308181E090E001C087
:10076000880F2A95EAF783278083DF91CF91089538
:10077000FC01A081B18114960D90BC91A02D4C91EB
:1007800021E030E0C901028002C0880F991F0A945D
:10079000E2F784230895DC01ED91FC911197048028
:1007A000F581E02D208130E0F90112960C9002C015
:1007B000F595E7950A94E2F7CF0180958170089549
:1007C000FC0182810895EE0FFF1F0590F491E02D4A
:1007D0000994A29FB001B39FC001A39F700D811D1A
:1007E0001124911DB29F700D811D1124911D08953A
:1007F0000F931F93CF93DF938230910510F482E023
:1008000090E0E0913A01F0913B0120E030E0A0E07F
:10081000B0E0309719F1408151810281138148176E
:100820005907C8F08417950769F4109731F01296AC
:100830000C93129713961C9327C000933A011093C0
:100840003B0122C02115310519F04217530718F456
:100850009A01BD01EF01DF01F801DBCF2115310560
:10086000F9F0281B390B2430310580F48A819B81F3
:100870006115710521F0FB019383828304C090937D
:100880003B0180933A01FE01329644C0FE01E20F23
:10089000F31F8193919322503109398328833AC001
:1008A0002091380130913901232B41F4209102012C
:1008B00030910301309339012093380120910001D8
:1008C000309101012115310541F42DB73EB740911A
:1008D000040150910501241B350BE0913801F09182
:1008E0003901E217F307A0F42E1B3F0B2817390735
:1008F00078F0AC014E5F5F4F2417350748F04E0F7C
:100900005F1F50933901409338018193919302C046
:10091000E0E0F0E0CF01DF91CF911F910F910895BA
:10092000CF93DF93009709F481C0FC0132971382C3
:100930001282A0913A01B0913B01109781F420817D
:100940003181820F931F209138013091390128178E
:10095000390751F5F0933901E093380167C0ED0193
:1009600020E030E0CE17DF0740F44A815B819E0132
:1009700041155105F1F0EA01F5CFD383C2834081DF
:100980005181840F951FC817D90759F4888199811F
:10099000840F951F0296918380838A819B81938324
:1009A00082832115310529F4F0933B01E0933A014C
:1009B0003DC0E901FB83EA8349915991C40FD51FDA
:1009C000EC17FD0761F480819181840F951F0296D9
:1009D000E90199838883828193819B838A83E0E004
:1009E000F0E012968D919C911397009719F0FD01FC
:1009F000DC01F7CF8D919C9111979D012E5F3F4FA8
:100A0000820F931F2091380130913901281739073F
:100A100069F4309729F410923B0110923A0102C018
:100A200013821282B0933901A0933801DF91CF91E4
:0A0A300008950E945B00F894FFCFC8
:100A3A0000003C0120002A002B00290064004F001E
:100A4A0043003200000000006D01C801E9011402F0
:0C0A5A00EF01F401F80105023702500220
:00000001FF
